:100000003FC1000059C1000057C1000055C10000A8
:1000100053C1000051C100004FC100004DC100009C
:100020004BC100000C94FA0C0C94320E0C94FD0E93
:1000300043C1000041C100003FC100003DC10000BC
:100040003BC100000C94E90C37C1000035C1000031
:1000500033C1000031C100002FC100002DC10000DC
:100060002BC1000029C1000027C1000025C10000EC
:1000700023C1000021C100001FC100001DC10000FC
:100080001BC1000019C1000017C1000015C100000C
:1000900013C1000011C100000FC100000DC100001C
:1000A0000BC1000009C1000007C100000E052E05AC
:1000B00038055E058C05A805CC052C064906DD062D
:1000C000E306E906FC065F07A810CA10B111CA10C2
:1000D000B1110C112F11B111821194116E616E00CA
:1000E000696E6600160344006100740061006C00D4
:1000F0006F00670067006500720000001003520087
:100100002E0020004F006100720065000000040313
:10011000090409022700010100C03209040000039C
:10012000FE030100070504024000050705830240A5
:100130000005070582030800FF12011001000000FE
:1001400008EB03652000000102DC0100407A10F397
:100150005A00A0724E18090010A5D4E80000E876F5
:1001600048170000E40B54020000CA9A3B0000004C
:10017000E1F505000080969800000040420F000065
:1001800000A08601000000102700000000E8030026
:100190000000006400000000000A000000000001F0
:1001A00000000000002C76D888DC674F0823DFC1F0
:1001B000DFAE59E1B1B796E5E3E453C63AE65199AB
:1001C0007696E8E6C28426EB898C9B62ED407C6FD4
:1001D000FCEFBC9C9F40F2BAA56FA5F490055A2A8B
:1001E000F75C936B6CF9676DC11BFCE0E40D47FE97
:1001F000F520E6B500D0ED902E030094357705008C
:1002000080841E080000204E0A000000C80C333312
:1002100033330F986E12831141EF8D2114893BE621
:100220005516CFFEE6DB18D1844B381BF77C1D90AA
:100230001DA4BBE424203284725E228100C9F12413
:10024000ECA1E53D274E414E494E495459494E4691
:10025000CDCCCC3D0AD7233C17B7D13877CC2B3245
:100260009595E6241FB14F0A000020410000C842C6
:1002700000401C4620BCBE4CCA1B0E5AAEC59D7425
:1002800011241FBECFEFDAE0DEBFCDBF13E0A0E048
:10029000B1E0E4E7F0E302C005900D92AE34B1079F
:1002A000D9F725E0AEE4B3E001C01D92A137B20753
:1002B000E1F75FD70C943818A3CEA3E1B0E0E3E6F2
:1002C000F1E00C94ED117C011B016A01FC01178225
:1002D0001682838181FF66C3BE016F5F7F4F4B0132
:1002E000F7019381F10193FD859193FF81911F01A6
:1002F000882309F453C3853239F493FD859193FF24
:1003000081911F01853239F4B70190E00E94F41504
:1003100056016501E5CF10E0512C20E02032A0F419
:100320008B3269F030F4803259F0833269F4206105
:100330002CC08D3239F0803339F4216026C0226020
:10034000246023C0286021C027FD27C030ED380F6E
:100350003A3078F426FF06C0FAE01F9F300D1124D2
:10036000132F13C06AE0569E300D1124532E2062C5
:100370000CC08E3221F426FD11C3206406C08C36D9
:1003800011F4206802C0883641F4F10193FD859193
:1003900093FF81911F018111C1CF9BEB980F933087
:1003A00018F42061805E06C09BE9980F933008F036
:1003B000AAC12F7E26FF16E02F73722E853621F4F8
:1003C000F22FF0647F2E08C0863621F4622F606819
:1003D000762E02C01111115077FE07C01C3348F46D
:1003E00044244394410E27E00BC0183030F4212FF1
:1003F00006C027E04CE3442E03C027E017E0412C61
:10040000560174E0A70EB11CF601608171818281F2
:100410009381042DA4010E94FF146C01098100FF47
:1004200002C003FF06C071FC07C072FC08C0612C4B
:1004300008C03DE2632E05C02BE2622E02C090E2AE
:10044000692E802F8C7099F1662011F084E001C034
:1004500083E0851510F0512C0BC0581A73FC08C0AE
:10046000B70180E290E00E94F4155A94C9F7F3CFE7
:10047000662029F0B701862D90E00E94F41503FD57
:1004800003C000EE10E002C00CED10E0F72DF0719B
:100490007F2EF8018491882309F476C2711080526E
:1004A000B70190E00E94F4150F5F1F4FF2CF77FE67
:1004B0000FC04C0C04FF04C08A81813309F44A94B4
:1004C000141474F5F8E0F41578F588E0482E2CC083
:1004D00076FC2AC0812F90E08C159D059CF06CEF76
:1004E000C6166FEFD60674F0772D7068772E0AC0A7
:1004F000E2E0F0E0EC0FFD1FE10FF11D80818033A1
:1005000019F411501111F4CF77FE0EC04424439416
:10051000410E812F90E0C816D9062CF41C1904C096
:100520004424439401C010E077FE07C01C141D044E
:100530003CF496012F5F3F4F05C025E030E002C03C
:1005400021E030E0662011F02F5F3F4F112331F0A2
:10055000412F50E04F5F5F4F240F351F452D50E076
:100560002417350714F4521A01C0512C872D8970B5
:1005700049F4552039F0B70180E290E00E94F4156B
:100580005A94F7CF662029F0B701862D90E00E949B
:10059000F41573FC09C0552039F0B70180E390E0F1
:1005A0000E94F4155A94F7CF77FE5FC09C2D8D2DD5
:1005B000D7FE02C090E080E0692E782E40E050E047
:1005C000C601841991099D878C87960126193709E0
:1005D000280D391D812F90E0EE27FF27E81BF90B2E
:1005E000FF87EE87FFEF6F167F0669F4B7018EE293
:1005F00090E02B8B3A8B488B598B0E94F4155989CC
:1006000048893A892B89C614D70454F06C857D85B6
:10061000661577052CF4F901E40FF51F818101C0FF
:1006200080E371E0671A71084F5F5F4FEE85FF85C9
:100630006E167F066CF0B70190E02B8B3A8B488BDF
:10064000598B0E94F4152B893A8948895989CACF58
:100650006C147D0439F49A81963318F4953311F4AF
:1006600004FF81E3B70190E04BC08A81813309F038
:100670000F7EB70190E00E94F415111105C074FEC1
:1006800018C085E490E017C0B7018EE290E00E94A8
:10069000F41582E066246394680EF401E80FF11DFE
:1006A0008081B70190E00E94F415115041F3862D2E
:1006B000F1CF85E690E0B7010E94F415D7FC05C0A4
:1006C000C114D10439F404FF05C0D194C194D108F8
:1006D0008DE201C08BE2B70190E00E94F41580E347
:1006E0006AE0C616D1042CF08F5FFAE0CF1AD10869
:1006F000F7CFB70190E00E94F415B701C601C0968C
:100700000E94F41541C1833631F0833779F0833587
:1007100009F058C021C0560172E0A70EB11CF601C5
:100720008081898301E010E0640114C05601F2E089
:10073000AF0EB11CF601C080D18026FF03C0612F2F
:1007400070E002C06FEF7FEFC6012B8B0E94E915AE
:100750008C012B892F7715C05601F2E0AF0EB11C2A
:10076000F601C080D18026FF03C0612F70E002C077
:100770006FEF7FEFC6012B8B0E94D7158C012B8961
:100780002068722E23FD1AC0852D90E008171907E6
:10079000A8F4B70180E290E00E94F4155A94F4CFD7
:1007A000F60177FC859177FE81916F01B70190E0AA
:1007B0000E94F41551105A940150110901151105A8
:1007C00079F7E2C0843611F0893651F5560127FFDA
:1007D00009C0F4E0AF0EB11CF60160817181828125
:1007E00093810AC0F2E0AF0EB11CF6016081718105
:1007F000882777FD8095982F022F0F7697FF08C0E6
:1008000090958095709561957F4F8F4F9F4F0068B1
:100810002AE030E0A4010E944616C82EC8183EC047
:10082000022F853721F40F7E2AE030E01DC0097FBA
:100830008F3691F018F4883559F0B0C0803719F030
:10084000883711F0ABC0006104FF09C0046007C025
:1008500024FF08C0066006C028E030E005C020E1A3
:1008600030E002C020E132E0560107FF09C0F4E0A9
:10087000AF0EB11CF601608171818281938108C045
:10088000F2E0AF0EB11CF6016081718180E090E072
:10089000A4010E944616C82EC8180F7706FF0BC089
:1008A000202F2E7FC11650F404FF0AC002FD08C09D
:1008B000202F2E7E05C0DC2C202F03C0DC2C01C095
:1008C000D12E24FF0DC0FE01EC0DF11D808180337F
:1008D00011F4297E09C022FF06C0D394D39404C02A
:1008E000822F867809F0D39423FD13C020FF06C021
:1008F0001C2DD51418F4150D1D19D52CD51468F41C
:10090000B70180E290E02B8B0E94F415D3942B89E1
:10091000F5CFD51410F45D1801C0512C24FF12C07E
:10092000B70180E390E02B8B0E94F4152B8922FF06
:1009300017C021FF03C088E590E002C088E790E07F
:10094000B7010CC0822F867859F021FD02C080E2E9
:1009500001C08BE227FD8DE2B70190E00E94F41503
:10096000C11638F4B70180E390E00E94F4151150ED
:10097000F7CFCA94F401EC0DF11D8081B70190E02E
:100980000E94F415C110F5CF552009F4C2CCB7016F
:1009900080E290E00E94F4155A94F6CFF701868128
:1009A000978102C08FEF9FEF6396E2E10C940912EA
:1009B00084B7877F84BF88E10FB6F8948093600086
:1009C000109260000FBE90E080E80FB6F89480931C
:1009D0006100909361000FBE0C941A0E0895089563
:1009E00042E361EC82E00E94540D42E361E883E05F
:1009F0000E94540D42E360E884E00C94540D809111
:100A0000640590E0FC013197E730F10508F0D6C0AD
:100A1000EA5AFF4F209163050C94E711223A09F03E
:100A2000CDC080915404811110C08091510490E098
:100A300020916505309166052817390741F481E05A
:100A4000809352048093540403C083E801C081E87A
:100A50009091E800977F9093E80077C0223A09F0E0
:100A6000ADC0809154048130C1F5809152042FC0F3
:100A7000223A09F0A3C080915404811112C08091E0
:100A8000510490E0209165053091660528173907DB
:100A900051F481E08093530483E08093540481E017
:100AA00003C083E801C081E89091E800977F9093AC
:100AB000E8008093F1008091510447C0223A09F088
:100AC0007DC080915404833041F48091530481119E
:100AD00006C01092540481E003C082E801C082E0A5
:100AE0009091E800977F9093E8008093F100109236
:100AF000F1001092F10080914F0490915004809386
:100B0000F100A0E0B0E0892F9A2FAB2FBB27809394
:100B1000F1001092F10038C0213A09F04FC08091E5
:100B20005404882321F083E88093F10008C081E019
:100B3000809353048093520485E080935404809101
:100B4000E800877F8093E80081E08093F1001EC079
:100B5000213AA1F580915404853061F480915304C9
:100B600081110AC080915204811106C01092540470
:100B700081E003C082E801C082E09091E800977FA5
:100B80009093E8008093F1001092F1008091E800CA
:100B90008E778093E800BDC7213A81F48091E80008
:100BA000877F8093E80068E170E080E091E00E9438
:100BB000C60F8091E8008B778093E80008959F929C
:100BC000AF92BF92CF92DF92EF92FF920F931F935B
:100BD000CF93DF93CDB7DEB7A1970FB6F894DEBF02
:100BE0000FBECDBF6C01CE0101967C0184E1F701FF
:100BF00011928A95E9F7B12CA12C86010A0D111DDD
:100C0000F80180818823C1F0F9E0FB15A8F050D4E9
:100C1000882329F0F8011082992493940BC099201D
:100C200049F0F701EB0DF11DEB0DF11D1183008370
:100C3000B394912CA394E1CF89819A81B2D4D82E18
:100C4000482F50E0FA013197E730F10508F03BC139
:100C5000E35AFF4F0C94E7110B811C8160E0C8013F
:100C600032D4882309F42FC1BE01605E7F4FC801D2
:100C70004BD48D8B8B3120F098A1992309F423C19B
:100C8000F2D4809350031092510382E080934F037B
:100C90002BC189859A85892B09F015C1CB80DC8011
:100CA00060E0C60110D4882309F40DC1ED80FE80F8
:100CB00060E0C70108D4882309F405C10F811885B5
:100CC00061E0C80100D4882309F4FDC0BE01605E64
:100CD0007F4FC60119D49F8F8E8FBE01605E7F4FFC
:100CE000C70112D48D8BC8010E94FC146A8F7B8FC0
:100CF0008C8F9D8F8E8D9F8D892B09F4E4C08D89FB
:100D0000882309F4E0C06A8D7B8D8C8D9D8D20E059
:100D100030E0A9010E942412882309F4D4C06A8D0E
:100D20007B8D8C8D9D8D26D38E8B4A8D5B8D6C8DAE
:100D30007D8D90E059D3182FF92EED884E896A8D5C
:100D40007B8D8C8D9D8D49A3BCD4012F2F2D49A166
:100D5000682F8E8D9F8D46D2882309F4B4C04A8DAA
:100D60005B8D6C8D7D8DFF921F938E891F928F936B
:100D70007F936F935F934F938D891F928F938F8D86
:100D80008F938E8D8F9387E292E09F938F9300E5F0
:100D900013E01F930F930E942616F8010190002084
:100DA000E9F73197E055F340EF5FE0934F030FB65B
:100DB000F894DEBF0FBECDBF97C06AD2882389F0FA
:100DC00062E872E082C05AD5813081F46BE972E04A
:100DD0007CC0EED5811103C06EEA72E076C081302E
:100DE00019F46BE872E071C0823019F464EA72E0C1
:100DF0006CC067EB72E069C0BE01605E7F4F8B81A3
:100E00009C8182D38D8B88A181114AC0FE01799685
:100E10007F018E01085E1F4F9E01295E3F4FAE018C
:100E20004A5E5F4FBE016B5E7F4FCE014E966CD225
:100E3000892B31F1898D1F928F932F8930E0322FCA
:100E40002227888D280F311D3F932F938E891F9263
:100E50008F938D891F928F938F8D8F938E8D8F930C
:100E600086EC92E09F938F9380E593E09F938F931E
:100E70000E9426160FB6F894DEBF0FBECDBF11C07C
:100E80008091550490915604892B19F46BE872E017
:100E900002C067E173E080E593E00E94E21501C0C3
:100EA000D12CE0E5F3E001900020E9F73197E0551F
:100EB000F340EF5FE0934F03D11016C004C081E010
:100EC00080934E0311C067E273E080E593E00E94D7
:100ED000E215E0E5F3E001900020E9F73197E055F5
:100EE000F340EF5FE0934F03A1960FB6F894DEBF97
:100EF0000FBECDBFDF91CF911F910F91FF90EF906B
:100F0000DF90CF90BF90AF909F900895482F809131
:100F10004E03882389F080915A042DE534E0E42FB4
:100F2000F92FD9019A2F921B981718F49D9191933C
:100F3000F9CF10925A040EC080914F0320E533E0A0
:100F4000E42FF92FD9019A2F921B981718F49D912D
:100F50009193F9CF10924E0308950F931F93CF935F
:100F6000DF9300D0CDB7DEB78C0184E08093E90039
:100F70008091E80082FF1DC01A821982AE014F5F86
:100F80005F4F6CE070E0C801BAD790915204853091
:100F900011F4992399F3F8012181209351049111BF
:100FA00005C091E0811190E0892F01C080E081703F
:100FB00001C080E00F900F90DF91CF911F910F91B2
:100FC00008950F931F93CF93DF9300D0CDB7DEB773
:100FD0008C0180915104F80181838095828383E0A4
:100FE0008093E9001A821982AE014F5F5F4F6CE077
:100FF00070E0C8013DD790915304853011F49923D6
:1010000099F3911105C091E0811190E0892F01C001
:1010100080E081700F900F90DF91CF911F910F9121
:101020000895CF93DF93CDB7DEB7CB50D1400FB645
:10103000F894DEBF0FBECDBF80916205843009F009
:101040008EC0CE01939589DF882309F484C0C050F7
:10105000DF4F8881C050D140813021F1823009F0CA
:1010600075C08091E8008B778093E800CE010196EF
:101070004DDF90E0A0E0B0E0CC5FDE4F8883998345
:10108000AA83BB83C450D14081E0C85FDE4F888310
:10109000C850D140CE01939594DF10925004109225
:1010A0004F0441C01092500410924F04CC5FDE4FA9
:1010B000688179818A819B81C450D1406F3F7105DD
:1010C0008105910529F020F06FEF70E080E090E05D
:1010D0004FE454E0CE01019612D7853021F480917F
:1010E0005204882319F3CC5FDE4FE881F981C450A4
:1010F000D14081E090E08C0F9D1FE80FF91F108216
:101100008091E8008B778093E800CC5FDE4F6881A8
:101110007981C450D140CE01019651DD1CC080912F
:10112000530481110DC0CC5FDE4F68817981C450BA
:10113000D1404FE454E0CE0101969AD6853079F340
:101140008091E8008E778093E80005C08091EB00E5
:1011500080628093EB001092530410925204C55F9A
:10116000DE4F0FB6F894DEBF0FBECDBFDF91CF913B
:1011700008951EDC789455DF0E94CB1164D4FBCF18
:10118000292F33272230310559F02330310569F0FA
:1011900021303105F9F482E190E029E331E01EC00D
:1011A00087E290E022E131E019C099278130910572
:1011B00041F08230910541F0892B61F4EEE0F1E0DD
:1011C00005C0ECEFF0E002C0E4EEF0E0849190E0C6
:1011D0009F0104C080E090E020E030E0FA0131831C
:1011E00020830895AF92BF92CF92DF92EF920F9338
:1011F000CF93DF9300D01F92CDB7DEB75C0189E0BB
:1012000090E02B834A8369830E94D513FC01C09030
:101210005504D09056042B814A816981009759F179
:10122000A114B10441F1862F807F29F5493020F5C2
:10123000EE2011F1B182A08262834383248305836F
:10124000E68210861782C114D10429F4F093560463
:10125000E09355040EC0D60117968D919C91189776
:10126000009711F06C01F7CFD6011896FC93EE931E
:10127000179781E001C080E00F900F900F90DF91F1
:10128000CF910F91EF90DF90CF90BF90AF900895E6
:101290008091550490915604FC012781308530934C
:1012A0005604209355040E946D1481E0209155044A
:1012B00030915604232B09F480E00895E091550401
:1012C000F0915604309771F080819181019791835C
:1012D0008083892B29F4DCDF882321F082E00895C4
:1012E00081E0089580E00895E0915504F09156045E
:1012F00090E0981739F0309729F00780F085E02DBD
:101300009F5FF7CFCF0108958F929F92AF92BF92C8
:10131000CF92DF92EF92FF920F931F93CF93DF93C1
:101320006C01EB014A0159018881DEDFFC01009765
:1013300099F080819181D6018D939C9382818883DD
:101340008381D4018C938481D5018C938581D801CC
:101350008C938681D7018C93CF01DF91CF911F9120
:101360000F91FF90EF90DF90CF90BF90AF909F9044
:101370008F900895CF92DF92EF92FF926B017C01E4
:1013800020E034E244E753E40E946E13181604F19F
:1013900020E034E244EF51E4C701B6010E946E132D
:1013A0001816C4F020E034E244E750E4C701B60167
:1013B0000E946E13181684F020E034E244E75FE3E5
:1013C000C701B6010E946E13181644F484E007C0EA
:1013D00081E005C082E003C083E001C085E0FF90AA
:1013E000EF90DF90CF900895CF93DF9300D000D09F
:1013F000CDB7DEB79A01AB018250843048F4E82FB4
:10140000F0E0EE0FFF1FE15EFE4F6081718102C0D0
:1014100061E070E080E090E029833A834B835C8355
:101420000E94BC1229813A814B815C810E94721317
:101430009B01AC0160E074E284E79BE40E94281207
:101440000E949012CB010F900F900F900F90DF91A0
:10145000CF91089550E0252F30E0FC01E20FF31FFB
:101460004081FB01E20FF31F2081421307C0442398
:1014700021F05F3F11F05F5FEECF242F211106C0F6
:10148000411102C080E008954A30E1F381E00895FF
:1014900020E030E0615050F0FC014191CF01F901B2
:1014A000E427E95DFE4F208130E0F4CF822F0895DC
:1014B000803239F097EF980F81E0923018F080E099
:1014C000089581E008950097C1F020E030E0FC012C
:1014D000E20FF11D408150ED540F5A3028F04E328A
:1014E00039F461110CC004C0323010F42F5FEFCF1B
:1014F000411103C081E0211106C080E0089532301F
:10150000B8F73F5FF3CF08950F931F93CF93DF9307
:101510008C01EB0160E0D7DF811102C082E00BC0DB
:10152000F801808180538A3028F420E030E080E0A8
:101530005AE005C083E0888380E090E01DC0F80198
:10154000E80FF11D908140ED490F4A3060F4B90178
:10155000569F9001579F300D112420533109290FB8
:10156000311D8F5FECCF2F3F310521F018F081E066
:10157000888301C01882C901DF91CF911F910F911B
:10158000089530E0FC01E30FF11D2081222341F09A
:101590004FE9420F4A3110F4205220833F5FF2CFCF
:1015A0000895CF93DF93EC01ECDF6DE273E0CE01A1
:1015B00051DF882329F162E373E0CE014BDF8823FA
:1015C00009F166E373E0CE0145DF8823E9F069E3C2
:1015D00073E0CE013FDF8823C9F06EE373E0CE01F4
:1015E00039DF8823A9F064E473E0CE0133DF882378
:1015F00089F068E473E0CE012DDF882369F00DC027
:1016000081E00BC082E009C083E007C084E005C030
:1016100085E003C086E001C087E0DF91CF910895A7
:101620001F93CF93DF93EC0113E081E01150B9F0E9
:101630008823A9F082E1EFD080E0EDD0888380E0BC
:10164000EAD0898380E0E7D08A8380E0E4D08B838E
:1016500080E0E1D08C8365E0CE011ADFE7CFDF9137
:10166000CF911F910895805ED6D080E0D4D080E0E5
:10167000D2C01F93CF93DF93D82FC62F10E4180F3B
:101680008D2FF1DFC81739F0812FC5D080E0C3D08E
:101690008C2FC1D0F5CFDF91CF911F91089560912C
:1016A0005C046F7090E1899F600D112460935C046D
:1016B00086E0DFCF60915B046F6060935B0485E040
:1016C000D8CFCF92DF92EF92FF926B017C0120E0A6
:1016D00030E048EC52E4B8D687FF4CC028EF33E541
:1016E00045E851E4C701B601AFD687FF22C020E02C
:1016F00030E040EA50E4C701B601A6D687FF0DC02E
:1017000020E030E040E250E4C701B6019DD6881FDA
:101710008827881F91E0892779C020E030E040E2E7
:1017200051E4C701B60190D6881F8827881F93E02F
:101730006BC020E030E048E452E4C701B60184D633
:1017400087FF0CC020E030E040EA51E4C701B60159
:101750007BD6881F8827881F95E056C020E030E0A0
:1017600040E752E4C701B6016FD6881F8827881F5B
:1017700097E04AC020E030E046E955E4C701B601F1
:1017800063D687FF21C020E030E046E954E4C7017A
:10179000B6015AD687FF0CC020E030E048EC53E495
:1017A000C701B60151D6881F8827881F99E02CC031
:1017B00020E030E046E155E4C701B60145D6881F78
:1017C0008827881F9BE020C020E030E041E656E4F7
:1017D000C701B60139D687FF0CC020E030E041EEEA
:1017E00055E4C701B60130D6881F8827881F9DE0C1
:1017F0000BC020E030E046E956E4C701B60124D62C
:10180000881F8827881F9FE0981B892FFF90EF90E3
:10181000DF90CF90089528988EBD0DB407FEFDCFC0
:10182000289A8EB508958F5FE0915504F091560483
:10183000968121E030E0A901082E01C0440F0A94EE
:10184000EAF7492339F08930C1F420E030E041E083
:1018500050E004C08930B8F78F5FEDCF822FBA0116
:10186000022E01C0660F0A94EAF7692331F42F5F54
:101870003F4F2A30310591F789E008958091180192
:10188000813021F082E080931801089581E008956D
:10189000882399F08091680081608093680080912E
:1018A0006B00806880936B0080916F0082608093F2
:1018B0006F0083E080931801089581E08093180100
:1018C000809168001092680080916B0010926B000C
:1018D00080916F0010926F000895CF93DF9300D036
:1018E0001F92CDB7DEB72B834A836983E3DE8091F5
:1018F00081006981685F682B609381004A81409311
:1019000089002B812093880010928500109284001A
:1019100080911801833039F081E00F900F900F9083
:10192000DF91CF91B5CF0F900F900F90DF91CF91B6
:101930000895CF93DF9380911801823011F18330A5
:1019400041F0811128C088E080935C056CDFC82FCE
:101950000CC0D0915C058D2F66DFC82FD817D8F04A
:10196000ADDC8823B9F08230B1F4E0915504F091F8
:1019700056042581448163818281AFDF10925D0529
:101980000AC088E050DFC82F80915C058C1718F0E2
:1019900095DC80E07DDF80915C058C1731F0C09391
:1019A0005C058C2FDF91CF917ACEDF91CF91089596
:1019B000809118012091550430915604232B41F059
:1019C000813031F410921801B4DF88E024DF80E028
:1019D00008951F920F920FB60F9211248F9380914A
:1019E0005D05816080935D058F910F900FBE0F9014
:1019F0001F9018951F920F920FB60F9211242F93DC
:101A00003F934F935F936F937F938F939F93AF9386
:101A1000BF93EF93FF9380915D05826080935D0596
:101A20008AE0F9DEFF91EF91BF91AF919F918F9185
:101A30007F916F915F914F913F912F910F900FBECA
:101A40000F901F9018958091550490915604892B02
:101A500019F480E090E00895809118018130C9F375
:101A600080915D058330B9F4F89420915A04822F57
:101A700090E0835A9B4F283F18F42C5F20935A0420
:101A8000CFDD57DF10925D05789480911801833087
:101A900011F488E0C0DEE0915504F09156043097CF
:101AA000C1F2808191810895982F973058F59093D5
:101AB000E900981739F07091EC002091ED005091F9
:101AC000F00003C0242F762F50E021FF19C0309181
:101AD000EB003E7F3093EB003091ED003D7F309383
:101AE000ED003091EB0031603093EB007093EC002F
:101AF0002093ED005093F0002091EE0027FF07C0E7
:101B00009F5FD3CF8F708093E90081E0089580E0DC
:101B100008958091630587FD05C08091E80080FFEE
:101B20000EC012C08091E80082FD05C08091620560
:101B30008111F8CF08958091E8008B7708C08091DB
:101B400062058111EACF08958091E8008E77809335
:101B5000E80008958091E4009091E50045E6209129
:101B6000EC0020FF21C02091E80020FD21C0209141
:101B70006205222389F0253089F02091EB0025FDB4
:101B80000FC02091E4003091E5002817390739F3A0
:101B9000415041F0C901E3CF82E0089583E0089508
:101BA00081E0089584E008952091E80022FFDFCFCE
:101BB00080E008950F931F93CF93DF9346D04DD0CD
:101BC000C8EDD0E088818F7788838881806888839A
:101BD00088818F7D888319BC1092620510925E0502
:101BE0001092600510925F0500EE10E0F801808110
:101BF0008B7F808388818160888342E060E080E021
:101C000053DFE1EEF0E080818E7F8083E2EEF0E052
:101C1000808181608083808188608083F8018081F9
:101C20008E7F8083888180618883DF91CF911F912F
:101C30000F910895E7EDF0E080818160808384E07A
:101C400082BF81E080936105B5CFE8EDF0E080814F
:101C50008E7F80831092E20008951092DA00109235
:101C6000E10008951F920F920FB60F9211242F9347
:101C70003F934F935F936F937F938F939F93AF9314
:101C8000BF93EF93FF938091E10082FF0AC08091A0
:101C9000E20082FF06C08091E1008B7F8093E1002B
:101CA00079D38091DA0080FF1FC08091D80080FF37
:101CB0001BC08091DA008E7F8093DA008091D9007A
:101CC00080FF0DC080E189BD82E189BD09B400FEBD
:101CD000FDCF81E0809362050E94EE0405C019BC2F
:101CE000109262050E94EF048091E10080FF18C00D
:101CF0008091E20080FF14C08091E2008E7F80938B
:101D0000E2008091E20080618093E2008091D8003F
:101D100080628093D80019BC85E0809362053AD335
:101D20008091E10084FF2DC08091E20084FF29C0F2
:101D300080E189BD82E189BD09B400FEFDCF8091BB
:101D4000D8008F7D8093D8008091E1008F7E8093B2
:101D5000E1008091E2008F7E8093E2008091E200BA
:101D600081608093E20080915E05811104C08091C2
:101D7000E30087FF02C084E001C081E08093620538
:101D800009D38091E10083FF27C08091E20083FFA7
:101D900023C08091E100877F8093E10082E08093FF
:101DA000620510925E058091E1008E7F8093E100D4
:101DB0008091E2008E7F8093E2008091E20080615A
:101DC0008093E20042E060E080E06EDE8091F0000F
:101DD00088608093F000DED2FF91EF91BF91AF91C8
:101DE0009F918F917F916F915F914F913F912F9133
:101DF0000F900FBE0F901F9018951F920F920FB665
:101E00000F9211242F933F934F935F936F937F9380
:101E10008F939F93AF93BF93CF93EF93FF93C09113
:101E2000E900CF708091EC001092E9008091F00001
:101E3000877F8093F000789462D11092E9008091BE
:101E4000F00088608093F000C093E900FF91EF916B
:101E5000CF91BF91AF919F918F917F916F915F9142
:101E60004F913F912F910F900FBE0F901F9018959B
:101E7000CF92DF92EF92FF920F931F93CF93DF9356
:101E80007C018B01EA0166DE811130C0209731F0C0
:101E900088819981081B190BE80EF91EC12CD12CE1
:101EA0000115110511F18091E80085FD13C08091A5
:101EB000E8008E778093E800209741F0888199812F
:101EC0008C0D9D1D9983888385E010C043DE882397
:101ED00039F30CC0F70181917F018093F10001502B
:101EE0001109FFEFCF1ADF0ADBCF80E0DF91CF913E
:101EF0001F910F91FF90EF90DF90CF900895CF92B8
:101F0000DF92EF92FF920F931F93CF93DF937C01A9
:101F10008B01EA011FDE811130C0209731F08881EA
:101F20009981081B190BE80EF91EC12CD12C011543
:101F3000110511F18091E80085FD13C08091E80042
:101F40008B778093E800209741F0888199818C0DF0
:101F50009D1D9983888385E010C0FCDD882339F3BB
:101F60000CC08091F100F70181937F0101501109AC
:101F7000FFEFCF1ADF0ADBCF80E0DF91CF911F9117
:101F80000F91FF90EF90DF90CF9008952091690519
:101F900030916A052617370748F06115710539F445
:101FA0002091E8002E772093E80001C0B901FC01E0
:101FB00020E061157105A9F1809162058823E9F19E
:101FC0008530E9F18091E80083FD35C08091E8001B
:101FD00082FF06C08091E80082FF26C080E008955D
:101FE0008091E80080FFE5CF2091F3008091F2001E
:101FF00090E0922B6115710551F08830910538F40D
:1020000021912093F100615071090196F3CF21E0F5
:10201000089709F020E08091E8008E778093E8002F
:10202000C8CF2111C9CFD6CF80916205882329F06E
:10203000853081F604C081E0089582E0089583E050
:1020400008952091690530916A052617370748F0F1
:102050006115710539F42091E8002E772093E8008E
:1020600001C0B901FC0120E061157105C1F1809149
:102070006205882309F43FC0853009F43EC0809191
:10208000E80083FD36C08091E80082FF06C08091A1
:10209000E80082FF27C080E008958091E80080FF7B
:1020A000E3CF2091F3008091F20090E0922B611534
:1020B000710559F08830910540F424912093F10086
:1020C0003196615071090196F2CF21E0089709F02D
:1020D00020E08091E8008E778093E800C5CF211141
:1020E000C6CFD5CF80916205882329F0853079F657
:1020F00004C081E0089582E0089583E008950F937D
:102100001F93CF93DF93CDB7DEB7AA970FB6F8949E
:10211000DEBF0FBECDBFE3E6F5E08091F100819315
:1021200025E0EB36F207C9F70E94FF048091E80032
:1021300083FF17C12091630530916405832F90E0E0
:102140008A30910508F00DC1FC01EC59FF4F3FC1E9
:10215000203881F0223809F004C1809167058F7022
:102160008093E9008091EB0085FB882780F910922D
:10217000E90006C080915F05909160059111826031
:102180009091E800977F9093E8008093F10010927F
:10219000F100C3C0822F8D7F09F0E3C0222319F024
:1021A000223061F0DEC080916505813009F0D9C030
:1021B000333009F080E08093600528C08091650588
:1021C000811124C0209167052F7009F4CAC02093A3
:1021D000E9008091EB0080FF19C08091EB00333063
:1021E00011F4806211C080618093EB0081E090E087
:1021F000022E01C0880F0A94EAF78093EA00109239
:10220000EA008091EB0088608093EB001092E90077
:102210008091E800877F84C02111A3C010916505DB
:102220001F770FB7F8948091E800877F8093E800CC
:1022300070DC8091E80080FFFCCF8091E300807823
:10224000812B8093E30080688093E300112311F0D9
:1022500083E001C082E0809362050FBF82C02058F6
:10226000223008F07EC080916505909166058C3D16
:1022700023E0920771F583E08A838AE289834FB76E
:10228000F894DE01139620E03EE051E2E32FF0E007
:1022900050935700E49120FF03C0E295EF703F5F39
:1022A000EF708E2F90E0EA3010F0C79601C0C09614
:1022B0008D939D932F5F243149F74FBF8091E800A4
:1022C000877F8093E8006AE270E0CE0101965EDECF
:1022D00013C0AE014F5F5F4F609167050E94C00859
:1022E000009709F43EC02091E800277F2093E80082
:1022F000BC0189819A81A5DE8091E8008B7780936B
:10230000E8002FC0203869F58091E800877F80932E
:10231000E80080915E058093F1008091E8008E775F
:102320008093E800F6DB1DC021111BC0909165056C
:102330009230B8F48091E800877F8093E800909312
:102340005E05E7DB80915E05811104C08091E300AA
:1023500087FF02C084E001C081E0809362050E9493
:10236000F0048091E80083FF0AC08091EB00806256
:102370008093EB008091E800877F8093E800AA9625
:102380000FB6F894DEBF0FBECDBFDF91CF911F9186
:102390000F9108950895CF93809162058823A9F045
:1023A0008091E9008F709091EC0090FF02C090E85E
:1023B00001C090E0C92FC82B1092E9008091E8007D
:1023C00083FD9DDECF70C093E900CF910895EE0F9D
:1023D000FF1F0590F491E02D09942F923F924F92A8
:1023E0005F926F927F928F929F92AF92BF92CF92A5
:1023F000DF92EF92FF920F931F93CF93DF93CDB7AE
:10240000DEB7CA1BDB0B0FB6F894DEBF0FBECDBF25
:1024100009942A88398848885F846E847D848C84F6
:102420009B84AA84B984C884DF80EE80FD800C81FF
:102430001B81AA81B981CE0FD11D0FB6F894DEBFE2
:102440000FBECDBFED010895D4D008F481E008950A
:102450000CD00AC102D140F0F9D030F021F45F3F36
:1024600019F0EBC0511134C1EEC00FD198F399238C
:10247000C9F35523B1F3951B550BBB27AA27621748
:102480007307840738F09F5F5F4F220F331F441F8D
:10249000AA1FA9F333D00E2E3AF0E0E830D09150C5
:1024A0005040E695001CCAF729D0FE2F27D0660FB2
:1024B000771F881FBB1F261737074807AB07B0E8F1
:1024C00009F0BB0B802DBF01FF2793585F4F2AF007
:1024D0009E3F510568F0B1C0FBC05F3FECF3983EF2
:1024E000DCF3869577956795B795F7959F5FC9F764
:1024F000880F911D9695879597F90895E1E0660FED
:10250000771F881FBB1F621773078407BA0720F065
:10251000621B730B840BBA0BEE1F88F7E0950895CE
:10252000BCD088F09F5790F0B92F9927B751A0F0F1
:10253000D1F0660F771F881F991F1AF0BA95C9F757
:1025400012C0B13081F0C3D0B1E00895C0C0672F90
:10255000782F8827B85F39F0B93FCCF38695779507
:102560006795B395D9F73EF49095809570956195F0
:102570007F4F8F4F9F4F0895E89409C097FB3EF41B
:1025800090958095709561957F4F8F4F9F4F9923C0
:10259000A9F0F92F96E9BB279395F695879577953E
:1025A0006795B795F111F8CFFAF4BB0F11F460FFFE
:1025B0001BC06F5F7F4F8F4F9F4F16C0882311F056
:1025C00096E911C0772321F09EE8872F762F05C06A
:1025D000662371F096E8862F70E060E02AF09A9505
:1025E000660F771F881FDAF7880F9695879597F9FA
:1025F0000895990F0008550FAA0BE0E8FEEF161694
:102600001706E807F907C0F012161306E407F507E6
:1026100098F0621B730B840B950B39F40A2661F05A
:10262000232B242B252B21F408950A2609F4A140FD
:10263000A6958FEF811D811D089597F99F6780E80A
:1026400070E060E008959FEF80EC089500240A9404
:102650001616170618060906089500240A9412167D
:102660001306140605060895092E0394000C11F4B0
:10267000882352F0BB0F40F4BF2B11F460FF04C05D
:102680006F5F7F4F8F4F9F4F089557FD9058440FB6
:10269000551F59F05F3F71F04795880F97FB991FC1
:1026A00061F09F3F79F0879508951216130614067E
:1026B000551FF2CF4695F1DF08C01616170618060B
:1026C000991FF1CF86957105610508940895E894E6
:1026D000BB2766277727CB0197F908958ADF08F48F
:1026E0008FEF08950BD0C0CFB1DF28F0B6DF18F020
:1026F000952309F0A2CFA7CF1124EACFC6DFA0F31C
:10270000959FD1F3950F50E0551F629FF001729F86
:10271000BB27F00DB11D639FAA27F00DB11DAA1FA5
:10272000649F6627B00DA11D661F829F2227B00DF2
:10273000A11D621F739FB00DA11D621F839FA00D7D
:10274000611D221F749F3327A00D611D231F849FCD
:10275000600D211D822F762F6A2F11249F57504024
:102760008AF0E1F088234AF0EE0FFF1FBB1F661FBF
:10277000771F881F91505040A9F79E3F510570F078
:102780005CCFA6CF5F3FECF3983EDCF38695779560
:102790006795B795F795E7959F5FC1F7FE2B880F73
:1027A000911D9695879597F90895CF93DF93823081
:1027B000910510F482E090E0E0916D05F0916E05D6
:1027C00020E030E0A0E0B0E0309739F14081518165
:1027D00048175907B8F04817590771F48281938157
:1027E000109729F013969C938E9312972CC0909378
:1027F0006E0580936D0527C02115310531F0421714
:10280000530718F0A901DB0101C0EF019A01BD01D6
:10281000DF010280F381E02DD7CF21153105F9F0DA
:10282000281B390B2430310580F48A819B81611586
:10283000710521F0FB019383828304C090936E05A0
:1028400080936D05FE01329644C0FE01E20FF31F36
:102850008193919322503109398328833AC0209182
:102860006B0530916C05232B41F420911B013091B5
:102870001C0130936C0520936B0520911901309158
:102880001A012115310541F42DB73EB740911D01C4
:1028900050911E01241B350BE0916B05F0916C05E6
:1028A000E217F307A0F42E1B3F0B2817390778F027
:1028B000AC014E5F5F4F2417350748F04E0F5F1F86
:1028C00050936C0540936B058193919302C0E0E0B7
:1028D000F0E0CF01DF91CF910895CF93DF93009780
:1028E00009F487C0FC01329713821282C0916D05F2
:1028F000D0916E05209781F420813181280F391FF6
:1029000080916B0590916C058217930779F5F09390
:102910006C05E0936B056DC0DE0120E030E0AE1782
:10292000BF0750F412964D915C9113979D0141158C
:10293000510509F1DA01F3CFB383A28340815181BC
:10294000840F951F8A179B0771F48D919C911197A5
:10295000840F951F02969183808312968D919C918E
:102960001397938382832115310529F4F0936E0523
:10297000E0936D053EC0D9011396FC93EE93129738
:102980004D915D91A40FB51FEA17FB0779F4808183
:102990009181840F951F0296D90111969C938E9375
:1029A0008281938113969C938E931297E0E0F0E0DE
:1029B0008A819B81009719F0FE01EC01F9CFCE01CD
:1029C000029628813981820F931F20916B053091E7
:1029D0006C052817390769F4309729F410926E05B1
:1029E00010926D0502C013821282D0936C05C093C1
:1029F0006B05DF91CF91089566277727A5C1283011
:102A000008F027E03327DA01990F311D87FD916027
:102A100000966105710539F432602E5F3D9330E315
:102A20002A95E1F708959F3F30F0803871056105E0
:102A300009F03C5F3C5F3D93913008F08068911D48
:102A4000DF93CF931F930F93FF92EF92192F987FED
:102A50009695E92F96959695E90FFF27EB55FE4F32
:102A600099273327EE24FF24A701E7010590089456
:102A7000079428F4360FE71EF81E491F511D660FF4
:102A8000771F881F991F0694A1F70590079428F4D3
:102A9000E70EF81E491F561FC11D770F881F991F8B
:102AA000661F0694A1F70590079428F4F80E491FB5
:102AB000561FC71FD11D880F991F661F771F0694C9
:102AC000A1F70590079420F4490F561FC71FD81F80
:102AD000990F661F771F881F0694A9F78491109598
:102AE000177041F0D695C79557954795F794E79499
:102AF0001A95C1F7EBE4F1E06894159015913591C2
:102B00006591959105907FE27395E118F10A430B69
:102B1000560BC90BD009C0F7E10CF11E431F561F1D
:102B2000C91FD01D7EF4703311F48A95E6CFE89466
:102B3000015030F0080F0AF40027021708F4202F84
:102B40002395022F7A3328F079E37D932A95E9F7CC
:102B500010C07D932A9589F60694979567953795C9
:102B600017951794E118F10A430B560BC90BD009BE
:102B700098F023957E9173957A3308F070E37C93F7
:102B80002013B8F77E9170617D9330F0839571E3E7
:102B90007D9370E32A95E1F71124EF90FF900F9158
:102BA0001F91CF91DF91992787FD90950895FC01A2
:102BB0000590615070400110D8F7809590958E0F68
:102BC0009F1F0895FB01DC0101900D920020E1F7A9
:102BD0000895FC016150704001900110D8F7809574
:102BE00090958E0F9F1F08950F931F93CF93DF93A0
:102BF000182F092FEB018B8181FD03C08FEF9FEF11
:102C000020C082FF10C04E815F812C813D81421720
:102C100053077CF4E881F9819F012F5F3F4F39838F
:102C20002883108306C0E885F985812F0995892BB3
:102C300029F72E813F812F5F3F4F3F832E83812FC6
:102C4000902FDF91CF911F910F910895AEE0B0E0EA
:102C5000EBE2F6E1D0CB0D891E8986E08C831A83E6
:102C600009838FEF9FE79E838D83AE01475E5F4FA1
:102C70006F89788DCE0101960E945D01EF81F88504
:102C8000E00FF11F10822E96E4E0D1CBFA01AA27C3
:102C9000283051F1203181F1E8946F936E7F6E5F9F
:102CA0007F4F8F4F9F4FAF4FB1E03ED0B4E03CD04D
:102CB000670F781F891F9A1FA11D680F791F8A1F30
:102CC000911DA11D6A0F711D811D911DA11D20D097
:102CD00009F468943F912AE0269F11243019305D51
:102CE0003193DEF6CF010895462F4770405D419342
:102CF000B3E00FD0C9F7F6CF462F4F70405D4A338F
:102D000018F0495D31FD4052419302D0A9F7EACF56
:102D1000B4E0A6959795879577956795BA95C9F785
:102D200000976105710508959B01AC010A2E069478
:102D30005795479537952795BA95C9F7620F731F31
:102D4000841F951FA01D0895A0E0B0E0E9EAF6E118
:102D50004ACB8B016115710521F0DB018C93119633
:102D60009C93EC015E01BFEFAB1ABB0A7501C880F2
:102D70008C2D90E041D1892B11F0E501F3CFEDE2EC
:102D8000CE1208C07E01F2E0EF0EF11CC980DD24F6
:102D9000D39409C02BE2C21205C07E0142E0E40ECA
:102DA000F11CC980D12CE701219743E050E06DE48C
:102DB00072E0CE0129D1892BB9F4239645E050E089
:102DC00068E472E0CE0120D1892B09F42596011523
:102DD000110519F0D801CD93DC93D11000C160E04A
:102DE00070E080E89FE704C143E050E065E472E0F2
:102DF000CE010AD1892B59F40115110509F4F4C04B
:102E0000B2E0EB0EF11CF801F182E082EDC0F701B7
:102E100060E070E0CB01C0E0D0E07F01A0EDAA2E21
:102E2000AC0C29E02A1528F14D2D4260B42E2D2D31
:102E30002870D2FE04C0211124C0219622C0211185
:102E40002197A5E0B0E09B01AC01F9D0660F771F98
:102E5000881F991F6A0D711D811D911D6839A9E98F
:102E60007A078A07A9E19A0760F0BD2DB660BB2EEC
:102E700008C02EEFA2120AC0D3FC50C04D2D4860EE
:102E8000B42E3196D701CC90DB2CC7CF2C2D2F7DC3
:102E9000253409F043C0A081AD3241F4BD2DB061AD
:102EA000DB2E7F0122E0E20EF11C0CC07F01AB3271
:102EB00031F04FEFE41AF40A21E030E006C0A2E05E
:102EC000EA0EF11CA18122E030E0A053AA3018F0F4
:102ED000E21AF30A23C0F70120E030E02038BCE01A
:102EE0003B075CF4A901440F551F440F551F240FE5
:102EF000351F220F331F2A0F311DAF014F5F5F4F68
:102F00007A01A081A053AA3010F4FA01E7CFD4FED1
:102F100003C0319521953109C20FD31FD1FE09C0DD
:102F20000115110531F0E1E0EE1AF108D801ED923A
:102F3000FC9222DB2D2D2370233019F04B015C0114
:102F400006C04B015C01B7FAB094B7F8B09420E02A
:102F500030E0A901C501B40177DA882309F43CC047
:102F6000D7FF06C0D195C195D10904E612E002C091
:102F70000CE712E06801B8E1CB1AD10890E2E92E23
:102F8000F12CCE15DF056CF0F801259135914591B6
:102F90005491C501B401A6DB4B015C01CE19DF09D8
:102FA000F0CF04501109F594E7940C151D0549F76D
:102FB0008A2D880F8B2D881F8F3F41F020E030E055
:102FC000A901C501B40140DA811106C082E290E096
:102FD0009093700580936F05C501B40109C060E04E
:102FE00070E080E89FEF04C060E070E080EC9FE755
:102FF000CDB7DEB7ECE013CA91111EC0803219F0D4
:1030000089508550D0F70895FB01DC0141505040B4
:1030100088F08D9181341CF08B350CF4805E6591C5
:1030200061341CF06B350CF4605E861B611171F32A
:10303000990B0895881BFCCF99278827089509D0FC
:10304000A59F900DB49F900DA49F800D911D1124FC
:103050000895A29FB001B39FC001A39F700D811D71
:103060001124911DB29F700D811D1124911D089591
:04307000F894FFCF02
:10307400010000010000000000000000000000004A
:10308400000000000000000001000071052000089D
:103094000040000001000400070E091C1B12153833
:1030A4003F363124232A2D70777E796C6B62654814
:1030B4004F464154535A5DE0E7EEE9FCFBF2F5D884
:1030C400DFD6D1C4C3CACD90979E998C8B8285A834
:1030D400AFA6A1B4B3BABDC7C0C9CEDBDCD5D2FF9D
:1030E400F8F1F6E3E4EDEAB7B0B9BEABACA5A28F54
:1030F40088818693949D9A2720292E3B3C35321F44
:1031040018111603040D0A5750595E4B4C45426F73
:1031140068616673747D7A898E878095929B9CB171
:10312400B6BFB8ADAAA3A4F9FEF7F0E5E2EBECC193
:10313400C6CFC8DDDAD3D4696E676075727B7C5103
:10314400565F584D4A4344191E171005020B0C21B3
:10315400262F283D3A33344E49404752555C5B761E
:1031640071787F6A6D64633E39303722252C2B06D3
:1031740001080F1A1D1413AEA9A0A7B2B5BCBB96C3
:1031840091989F8A8D8483DED9D0D7C2C5CCCBE6F3
:10319400E1E8EFFAFDF4F34E756D626572206F6637
:1031A4002053616D706C65733A202575092043685E
:1031B400616E6E656C733A202575092053616D70DC
:1031C4006C6520526174653A2025660A50726573F5
:1031D40063616C652056616C75653A2025750943F9
:1031E4006F756E7465722056616C75653A2025752D
:1031F4000A0052454D4F5645440A004E4F20534154
:103204004D504C4520534554530A0053544F50508D
:1032140045440A0053544F5050494E470A005354F2
:1032240041525445440A00414C52454144592047B7
:103234004F494E470A004E756D626572206F6620D5
:1032440053616D706C65733A2025750941444320C0
:10325400526174653A202575095072657363616C17
:10326400653A20257509436F6D706172652056615A
:103274006C75653A20257509204368616E6E656C2E
:10328400733A2025750A00444F4553204E4F54206D
:1032940045584953540A004552524F520052524520
:1032A400470041444400524D0053544F500053547E
:0E32B40041525400515259005245414400000D
:04000003000019B030
:00000001FF
